{
  "_format": "hh-sol-artifact-1",
  "contractName": "Voting",
  "sourceName": "contracts/Voting.sol",
  "abi": [
    {
      "inputs": [
        {
          "internalType": "string[]",
          "name": "_candidates",
          "type": "string[]"
        }
      ],
      "stateMutability": "nonpayable",
      "type": "constructor"
    },
    {
      "inputs": [],
      "name": "admin",
      "outputs": [
        {
          "internalType": "address",
          "name": "",
          "type": "address"
        }
      ],
      "stateMutability": "view",
      "type": "function"
    },
    {
      "inputs": [
        {
          "internalType": "uint256",
          "name": "",
          "type": "uint256"
        }
      ],
      "name": "candidates",
      "outputs": [
        {
          "internalType": "string",
          "name": "",
          "type": "string"
        }
      ],
      "stateMutability": "view",
      "type": "function"
    },
    {
      "inputs": [],
      "name": "getCandidates",
      "outputs": [
        {
          "internalType": "string[]",
          "name": "",
          "type": "string[]"
        }
      ],
      "stateMutability": "view",
      "type": "function"
    },
    {
      "inputs": [
        {
          "internalType": "string",
          "name": "_candidate",
          "type": "string"
        }
      ],
      "name": "getVotes",
      "outputs": [
        {
          "internalType": "uint256",
          "name": "",
          "type": "uint256"
        }
      ],
      "stateMutability": "view",
      "type": "function"
    },
    {
      "inputs": [
        {
          "internalType": "address",
          "name": "",
          "type": "address"
        }
      ],
      "name": "hasVoted",
      "outputs": [
        {
          "internalType": "bool",
          "name": "",
          "type": "bool"
        }
      ],
      "stateMutability": "view",
      "type": "function"
    },
    {
      "inputs": [
        {
          "internalType": "string",
          "name": "_candidate",
          "type": "string"
        }
      ],
      "name": "vote",
      "outputs": [],
      "stateMutability": "nonpayable",
      "type": "function"
    },
    {
      "inputs": [
        {
          "internalType": "string",
          "name": "",
          "type": "string"
        }
      ],
      "name": "votes",
      "outputs": [
        {
          "internalType": "uint256",
          "name": "",
          "type": "uint256"
        }
      ],
      "stateMutability": "view",
      "type": "function"
    }
  ],
  "bytecode": "0x608060405234801561001057600080fd5b506040516114bd3803806114bd833981810160405281019061003291906103c4565b336000806101000a81548173ffffffffffffffffffffffffffffffffffffffff021916908373ffffffffffffffffffffffffffffffffffffffff160217905550806003908051906020019061008892919061008f565b5050610700565b8280548282559060005260206000209081019282156100d7579160200282015b828111156100d65782518290816100c6919061062e565b50916020019190600101906100af565b5b5090506100e491906100e8565b5090565b5b8082111561010857600081816100ff919061010c565b506001016100e9565b5090565b50805461011890610447565b6000825580601f1061012a5750610149565b601f016020900490600052602060002090810190610148919061014c565b5b50565b5b8082111561016557600081600090555060010161014d565b5090565b6000604051905090565b600080fd5b600080fd5b600080fd5b6000601f19601f8301169050919050565b7f4e487b7100000000000000000000000000000000000000000000000000000000600052604160045260246000fd5b6101cb82610182565b810181811067ffffffffffffffff821117156101ea576101e9610193565b5b80604052505050565b60006101fd610169565b905061020982826101c2565b919050565b600067ffffffffffffffff82111561022957610228610193565b5b602082029050602081019050919050565b600080fd5b600080fd5b600067ffffffffffffffff82111561025f5761025e610193565b5b61026882610182565b9050602081019050919050565b60005b83811015610293578082015181840152602081019050610278565b60008484015250505050565b60006102b26102ad84610244565b6101f3565b9050828152602081018484840111156102ce576102cd61023f565b5b6102d9848285610275565b509392505050565b600082601f8301126102f6576102f561017d565b5b815161030684826020860161029f565b91505092915050565b600061032261031d8461020e565b6101f3565b905080838252602082019050602084028301858111156103455761034461023a565b5b835b8181101561038c57805167ffffffffffffffff81111561036a5761036961017d565b5b80860161037789826102e1565b85526020850194505050602081019050610347565b5050509392505050565b600082601f8301126103ab576103aa61017d565b5b81516103bb84826020860161030f565b91505092915050565b6000602082840312156103da576103d9610173565b5b600082015167ffffffffffffffff8111156103f8576103f7610178565b5b61040484828501610396565b91505092915050565b600081519050919050565b7f4e487b7100000000000000000000000000000000000000000000000000000000600052602260045260246000fd5b6000600282049050600182168061045f57607f821691505b60208210810361047257610471610418565b5b50919050565b60008190508160005260206000209050919050565b60006020601f8301049050919050565b600082821b905092915050565b6000600883026104da7fffffffffffffffffffffffffffffffffffffffffffffffffffffffffffffffff8261049d565b6104e4868361049d565b95508019841693508086168417925050509392505050565b6000819050919050565b6000819050919050565b600061052b610526610521846104fc565b610506565b6104fc565b9050919050565b6000819050919050565b61054583610510565b61055961055182610532565b8484546104aa565b825550505050565b600090565b61056e610561565b61057981848461053c565b505050565b5b8181101561059d57610592600082610566565b60018101905061057f565b5050565b601f8211156105e2576105b381610478565b6105bc8461048d565b810160208510156105cb578190505b6105df6105d78561048d565b83018261057e565b50505b505050565b600082821c905092915050565b6000610605600019846008026105e7565b1980831691505092915050565b600061061e83836105f4565b9150826002028217905092915050565b6106378261040d565b67ffffffffffffffff8111156106505761064f610193565b5b61065a8254610447565b6106658282856105a1565b600060209050601f8311600181146106985760008415610686578287015190505b6106908582610612565b8655506106f8565b601f1984166106a686610478565b60005b828110156106ce578489015182556001820191506020850194506020810190506106a9565b868310156106eb57848901516106e7601f8916826105f4565b8355505b6001600288020188555050505b505050505050565b610dae8061070f6000396000f3fe608060405234801561001057600080fd5b506004361061007d5760003560e01c8063805265e51161005b578063805265e514610100578063b99ef1fa14610130578063f851a44014610160578063fc36e15b1461017e5761007d565b806306a49fce1461008257806309eef43e146100a05780633477ee2e146100d0575b600080fd5b61008a61019a565b6040516100979190610700565b60405180910390f35b6100ba60048036038101906100b59190610794565b610273565b6040516100c791906107dc565b60405180910390f35b6100ea60048036038101906100e5919061082d565b610293565b6040516100f791906108a4565b60405180910390f35b61011a600480360381019061011591906109fb565b61033f565b6040516101279190610a53565b60405180910390f35b61014a600480360381019061014591906109fb565b610367565b6040516101579190610a53565b60405180910390f35b610168610395565b6040516101759190610a7d565b60405180910390f35b610198600480360381019061019391906109fb565b6103b9565b005b60606003805480602002602001604051908101604052809291908181526020016000905b8282101561026a5783829060005260206000200180546101dd90610ac7565b80601f016020809104026020016040519081016040528092919081815260200182805461020990610ac7565b80156102565780601f1061022b57610100808354040283529160200191610256565b820191906000526020600020905b81548152906001019060200180831161023957829003601f168201915b5050505050815260200190600101906101be565b50505050905090565b60026020528060005260406000206000915054906101000a900460ff1681565b600381815481106102a357600080fd5b9060005260206000200160009150905080546102be90610ac7565b80601f01602080910402602001604051908101604052809291908181526020018280546102ea90610ac7565b80156103375780601f1061030c57610100808354040283529160200191610337565b820191906000526020600020905b81548152906001019060200180831161031a57829003601f168201915b505050505081565b60006001826040516103519190610b34565b9081526020016040518091039020549050919050565b6001818051602081018201805184825260208301602085012081835280955050505050506000915090505481565b60008054906101000a900473ffffffffffffffffffffffffffffffffffffffff1681565b600260003373ffffffffffffffffffffffffffffffffffffffff1673ffffffffffffffffffffffffffffffffffffffff16815260200190815260200160002060009054906101000a900460ff1615610446576040517f08c379a000000000000000000000000000000000000000000000000000000000815260040161043d90610b97565b60405180910390fd5b6000805b6003805490508110156104dd57826040516020016104689190610b34565b604051602081830303815290604052805190602001206003828154811061049257610491610bb7565b5b906000526020600020016040516020016104ac9190610c7e565b60405160208183030381529060405280519060200120036104d057600191506104dd565b808060010191505061044a565b508061051e576040517f08c379a000000000000000000000000000000000000000000000000000000000815260040161051590610ce1565b60405180910390fd5b60018260405161052e9190610b34565b9081526020016040518091039020600081548092919061054d90610d30565b91905055506001600260003373ffffffffffffffffffffffffffffffffffffffff1673ffffffffffffffffffffffffffffffffffffffff16815260200190815260200160002060006101000a81548160ff0219169083151502179055505050565b600081519050919050565b600082825260208201905092915050565b6000819050602082019050919050565b600081519050919050565b600082825260208201905092915050565b60005b838110156106145780820151818401526020810190506105f9565b60008484015250505050565b6000601f19601f8301169050919050565b600061063c826105da565b61064681856105e5565b93506106568185602086016105f6565b61065f81610620565b840191505092915050565b60006106768383610631565b905092915050565b6000602082019050919050565b6000610696826105ae565b6106a081856105b9565b9350836020820285016106b2856105ca565b8060005b858110156106ee57848403895281516106cf858261066a565b94506106da8361067e565b925060208a019950506001810190506106b6565b50829750879550505050505092915050565b6000602082019050818103600083015261071a818461068b565b905092915050565b6000604051905090565b600080fd5b600080fd5b600073ffffffffffffffffffffffffffffffffffffffff82169050919050565b600061076182610736565b9050919050565b61077181610756565b811461077c57600080fd5b50565b60008135905061078e81610768565b92915050565b6000602082840312156107aa576107a961072c565b5b60006107b88482850161077f565b91505092915050565b60008115159050919050565b6107d6816107c1565b82525050565b60006020820190506107f160008301846107cd565b92915050565b6000819050919050565b61080a816107f7565b811461081557600080fd5b50565b60008135905061082781610801565b92915050565b6000602082840312156108435761084261072c565b5b600061085184828501610818565b91505092915050565b600082825260208201905092915050565b6000610876826105da565b610880818561085a565b93506108908185602086016105f6565b61089981610620565b840191505092915050565b600060208201905081810360008301526108be818461086b565b905092915050565b600080fd5b600080fd5b7f4e487b7100000000000000000000000000000000000000000000000000000000600052604160045260246000fd5b61090882610620565b810181811067ffffffffffffffff82111715610927576109266108d0565b5b80604052505050565b600061093a610722565b905061094682826108ff565b919050565b600067ffffffffffffffff821115610966576109656108d0565b5b61096f82610620565b9050602081019050919050565b82818337600083830152505050565b600061099e6109998461094b565b610930565b9050828152602081018484840111156109ba576109b96108cb565b5b6109c584828561097c565b509392505050565b600082601f8301126109e2576109e16108c6565b5b81356109f284826020860161098b565b91505092915050565b600060208284031215610a1157610a1061072c565b5b600082013567ffffffffffffffff811115610a2f57610a2e610731565b5b610a3b848285016109cd565b91505092915050565b610a4d816107f7565b82525050565b6000602082019050610a686000830184610a44565b92915050565b610a7781610756565b82525050565b6000602082019050610a926000830184610a6e565b92915050565b7f4e487b7100000000000000000000000000000000000000000000000000000000600052602260045260246000fd5b60006002820490506001821680610adf57607f821691505b602082108103610af257610af1610a98565b5b50919050565b600081905092915050565b6000610b0e826105da565b610b188185610af8565b9350610b288185602086016105f6565b80840191505092915050565b6000610b408284610b03565b915081905092915050565b7f596f75206861766520616c726561647920766f74656400000000000000000000600082015250565b6000610b8160168361085a565b9150610b8c82610b4b565b602082019050919050565b60006020820190508181036000830152610bb081610b74565b9050919050565b7f4e487b7100000000000000000000000000000000000000000000000000000000600052603260045260246000fd5b60008190508160005260206000209050919050565b60008154610c0881610ac7565b610c128186610af8565b94506001821660008114610c2d5760018114610c4257610c75565b60ff1983168652811515820286019350610c75565b610c4b85610be6565b60005b83811015610c6d57815481890152600182019150602081019050610c4e565b838801955050505b50505092915050565b6000610c8a8284610bfb565b915081905092915050565b7f496e76616c69642063616e646964617465000000000000000000000000000000600082015250565b6000610ccb60118361085a565b9150610cd682610c95565b602082019050919050565b60006020820190508181036000830152610cfa81610cbe565b9050919050565b7f4e487b7100000000000000000000000000000000000000000000000000000000600052601160045260246000fd5b6000610d3b826107f7565b91507fffffffffffffffffffffffffffffffffffffffffffffffffffffffffffffffff8203610d6d57610d6c610d01565b5b60018201905091905056fea264697066735822122035b1b5f29345b74a0ce60dbbb030ad3000ae92714a2a1f6b24618579e772f0e064736f6c634300081c0033",
  "linkReferences": {},
  "deployedLinkReferences": {}
}