{
  "_format": "hh-sol-artifact-1",
  "contractName": "SmartVoting",
  "sourceName": "contracts/Voting.sol",
  "abi": [
    {
      "inputs": [],
      "stateMutability": "nonpayable",
      "type": "constructor"
    },
    {
      "inputs": [
        {
          "internalType": "string",
          "name": "_name",
          "type": "string"
        },
        {
          "internalType": "string",
          "name": "_post",
          "type": "string"
        }
      ],
      "name": "addCandidate",
      "outputs": [],
      "stateMutability": "nonpayable",
      "type": "function"
    },
    {
      "inputs": [],
      "name": "admin",
      "outputs": [
        {
          "internalType": "address",
          "name": "",
          "type": "address"
        }
      ],
      "stateMutability": "view",
      "type": "function"
    },
    {
      "inputs": [
        {
          "internalType": "uint256",
          "name": "",
          "type": "uint256"
        }
      ],
      "name": "candidates",
      "outputs": [
        {
          "internalType": "string",
          "name": "name",
          "type": "string"
        },
        {
          "internalType": "string",
          "name": "post",
          "type": "string"
        },
        {
          "internalType": "uint256",
          "name": "voteCount",
          "type": "uint256"
        }
      ],
      "stateMutability": "view",
      "type": "function"
    },
    {
      "inputs": [],
      "name": "electionEnded",
      "outputs": [
        {
          "internalType": "bool",
          "name": "",
          "type": "bool"
        }
      ],
      "stateMutability": "view",
      "type": "function"
    },
    {
      "inputs": [],
      "name": "electionStarted",
      "outputs": [
        {
          "internalType": "bool",
          "name": "",
          "type": "bool"
        }
      ],
      "stateMutability": "view",
      "type": "function"
    },
    {
      "inputs": [],
      "name": "endElection",
      "outputs": [],
      "stateMutability": "nonpayable",
      "type": "function"
    },
    {
      "inputs": [],
      "name": "getCandidates",
      "outputs": [
        {
          "components": [
            {
              "internalType": "string",
              "name": "name",
              "type": "string"
            },
            {
              "internalType": "string",
              "name": "post",
              "type": "string"
            },
            {
              "internalType": "uint256",
              "name": "voteCount",
              "type": "uint256"
            }
          ],
          "internalType": "struct SmartVoting.Candidate[]",
          "name": "",
          "type": "tuple[]"
        }
      ],
      "stateMutability": "view",
      "type": "function"
    },
    {
      "inputs": [],
      "name": "getWinner",
      "outputs": [
        {
          "internalType": "string",
          "name": "winnerName",
          "type": "string"
        },
        {
          "internalType": "uint256",
          "name": "highestVotes",
          "type": "uint256"
        }
      ],
      "stateMutability": "view",
      "type": "function"
    },
    {
      "inputs": [
        {
          "internalType": "address",
          "name": "",
          "type": "address"
        }
      ],
      "name": "hasVoted",
      "outputs": [
        {
          "internalType": "bool",
          "name": "",
          "type": "bool"
        }
      ],
      "stateMutability": "view",
      "type": "function"
    },
    {
      "inputs": [
        {
          "internalType": "string",
          "name": "",
          "type": "string"
        }
      ],
      "name": "matricVoted",
      "outputs": [
        {
          "internalType": "bool",
          "name": "",
          "type": "bool"
        }
      ],
      "stateMutability": "view",
      "type": "function"
    },
    {
      "inputs": [],
      "name": "startElection",
      "outputs": [],
      "stateMutability": "nonpayable",
      "type": "function"
    },
    {
      "inputs": [
        {
          "internalType": "uint256",
          "name": "_candidateIndex",
          "type": "uint256"
        },
        {
          "internalType": "string",
          "name": "_matric",
          "type": "string"
        }
      ],
      "name": "vote",
      "outputs": [],
      "stateMutability": "nonpayable",
      "type": "function"
    },
    {
      "inputs": [
        {
          "internalType": "string",
          "name": "_matric",
          "type": "string"
        },
        {
          "internalType": "address",
          "name": "_wallet",
          "type": "address"
        }
      ],
      "name": "whitelistVoter",
      "outputs": [],
      "stateMutability": "nonpayable",
      "type": "function"
    },
    {
      "inputs": [
        {
          "internalType": "string",
          "name": "",
          "type": "string"
        }
      ],
      "name": "whitelistedVoters",
      "outputs": [
        {
          "internalType": "address",
          "name": "",
          "type": "address"
        }
      ],
      "stateMutability": "view",
      "type": "function"
    }
  ],
  "bytecode": "0x6080604052348015600f57600080fd5b50336000806101000a81548173ffffffffffffffffffffffffffffffffffffffff021916908373ffffffffffffffffffffffffffffffffffffffff160217905550611c118061005f6000396000f3fe608060405234801561001057600080fd5b50600436106100ea5760003560e01c8063689e12a81161008c578063bffc1bda11610066578063bffc1bda14610226578063c94ca9e314610256578063d5346da114610274578063f851a44014610292576100ea565b8063689e12a8146101bb5780638e7ea5b2146101eb578063b3e267021461020a576100ea565b806326541b56116100c857806326541b56146101595780633477ee2e1461017557806359f78468146101a757806362d73eb8146101b1576100ea565b806306a49fce146100ef57806309eef43e1461010d578063241084751461013d575b600080fd5b6100f76102b0565b6040516101049190611028565b60405180910390f35b610127600480360381019061012291906110bc565b61043d565b6040516101349190611104565b60405180910390f35b61015760048036038101906101529190611280565b61045d565b005b610173600480360381019061016e91906112dc565b610739565b005b61018f600480360381019061018a9190611354565b61084a565b60405161019e939291906113da565b60405180910390f35b6101af610994565b005b6101b9610a3f565b005b6101d560048036038101906101d0919061141f565b610b04565b6040516101e29190611104565b60405180910390f35b6101f3610b3a565b604051610201929190611468565b60405180910390f35b610224600480360381019061021f9190611498565b610ce4565b005b610240600480360381019061023b919061141f565b610dd3565b60405161024d9190611503565b60405180910390f35b61025e610e1c565b60405161026b9190611104565b60405180910390f35b61027c610e2f565b6040516102899190611104565b60405180910390f35b61029a610e42565b6040516102a79190611503565b60405180910390f35b60606001805480602002602001604051908101604052809291908181526020016000905b8282101561043457838290600052602060002090600302016040518060600160405290816000820180546103079061154d565b80601f01602080910402602001604051908101604052809291908181526020018280546103339061154d565b80156103805780601f1061035557610100808354040283529160200191610380565b820191906000526020600020905b81548152906001019060200180831161036357829003601f168201915b505050505081526020016001820180546103999061154d565b80601f01602080910402602001604051908101604052809291908181526020018280546103c59061154d565b80156104125780601f106103e757610100808354040283529160200191610412565b820191906000526020600020905b8154815290600101906020018083116103f557829003601f168201915b50505050508152602001600282015481525050815260200190600101906102d4565b50505050905090565b60026020528060005260406000206000915054906101000a900460ff1681565b600060149054906101000a900460ff1680156104865750600060159054906101000a900460ff16155b6104c5576040517f08c379a00000000000000000000000000000000000000000000000000000000081526004016104bc906115ca565b60405180910390fd5b600260003373ffffffffffffffffffffffffffffffffffffffff1673ffffffffffffffffffffffffffffffffffffffff16815260200190815260200160002060009054906101000a900460ff1615610552576040517f08c379a000000000000000000000000000000000000000000000000000000000815260040161054990611636565b60405180910390fd5b6004816040516105629190611692565b908152602001604051809103902060009054906101000a900460ff16156105be576040517f08c379a00000000000000000000000000000000000000000000000000000000081526004016105b59061171b565b60405180910390fd5b3373ffffffffffffffffffffffffffffffffffffffff166003826040516105e59190611692565b908152602001604051809103902060009054906101000a900473ffffffffffffffffffffffffffffffffffffffff1673ffffffffffffffffffffffffffffffffffffffff161461066a576040517f08c379a0000000000000000000000000000000000000000000000000000000008152600401610661906117ad565b60405180910390fd5b600180838154811061067f5761067e6117cd565b5b9060005260206000209060030201600201600082825461069f919061182b565b925050819055506001600260003373ffffffffffffffffffffffffffffffffffffffff1673ffffffffffffffffffffffffffffffffffffffff16815260200190815260200160002060006101000a81548160ff02191690831515021790555060016004826040516107109190611692565b908152602001604051809103902060006101000a81548160ff0219169083151502179055505050565b60008054906101000a900473ffffffffffffffffffffffffffffffffffffffff1673ffffffffffffffffffffffffffffffffffffffff163373ffffffffffffffffffffffffffffffffffffffff16146107c7576040517f08c379a00000000000000000000000000000000000000000000000000000000081526004016107be906118d1565b60405180910390fd5b600160405180606001604052808481526020018381526020016000815250908060018154018082558091505060019003906000526020600020906003020160009091909190915060008201518160000190816108239190611a9d565b5060208201518160010190816108399190611a9d565b506040820151816002015550505050565b6001818154811061085a57600080fd5b906000526020600020906003020160009150905080600001805461087d9061154d565b80601f01602080910402602001604051908101604052809291908181526020018280546108a99061154d565b80156108f65780601f106108cb576101008083540402835291602001916108f6565b820191906000526020600020905b8154815290600101906020018083116108d957829003601f168201915b50505050509080600101805461090b9061154d565b80601f01602080910402602001604051908101604052809291908181526020018280546109379061154d565b80156109845780601f1061095957610100808354040283529160200191610984565b820191906000526020600020905b81548152906001019060200180831161096757829003601f168201915b5050505050908060020154905083565b60008054906101000a900473ffffffffffffffffffffffffffffffffffffffff1673ffffffffffffffffffffffffffffffffffffffff163373ffffffffffffffffffffffffffffffffffffffff1614610a22576040517f08c379a0000000000000000000000000000000000000000000000000000000008152600401610a19906118d1565b60405180910390fd5b6001600060156101000a81548160ff021916908315150217905550565b60008054906101000a900473ffffffffffffffffffffffffffffffffffffffff1673ffffffffffffffffffffffffffffffffffffffff163373ffffffffffffffffffffffffffffffffffffffff1614610acd576040517f08c379a0000000000000000000000000000000000000000000000000000000008152600401610ac4906118d1565b60405180910390fd5b6001600060146101000a81548160ff02191690831515021790555060008060156101000a81548160ff021916908315150217905550565b6004818051602081018201805184825260208301602085012081835280955050505050506000915054906101000a900460ff1681565b606060008060159054906101000a900460ff16610b8c576040517f08c379a0000000000000000000000000000000000000000000000000000000008152600401610b8390611bbb565b60405180910390fd5b60008060005b600180549050811015610c05578260018281548110610bb457610bb36117cd565b5b9060005260206000209060030201600201541115610bf85760018181548110610be057610bdf6117cd565b5b90600052602060002090600302016002015492508091505b8080600101915050610b92565b5060018181548110610c1a57610c196117cd565b5b90600052602060002090600302016000018054610c369061154d565b80601f0160208091040260200160405190810160405280929190818152602001828054610c629061154d565b8015610caf5780601f10610c8457610100808354040283529160200191610caf565b820191906000526020600020905b815481529060010190602001808311610c9257829003601f168201915b5050505050935060018181548110610cca57610cc96117cd565b5b906000526020600020906003020160020154925050509091565b60008054906101000a900473ffffffffffffffffffffffffffffffffffffffff1673ffffffffffffffffffffffffffffffffffffffff163373ffffffffffffffffffffffffffffffffffffffff1614610d72576040517f08c379a0000000000000000000000000000000000000000000000000000000008152600401610d69906118d1565b60405180910390fd5b80600383604051610d839190611692565b908152602001604051809103902060006101000a81548173ffffffffffffffffffffffffffffffffffffffff021916908373ffffffffffffffffffffffffffffffffffffffff1602179055505050565b6003818051602081018201805184825260208301602085012081835280955050505050506000915054906101000a900473ffffffffffffffffffffffffffffffffffffffff1681565b600060159054906101000a900460ff1681565b600060149054906101000a900460ff1681565b60008054906101000a900473ffffffffffffffffffffffffffffffffffffffff1681565b600081519050919050565b600082825260208201905092915050565b6000819050602082019050919050565b600081519050919050565b600082825260208201905092915050565b60005b83811015610ecc578082015181840152602081019050610eb1565b60008484015250505050565b6000601f19601f8301169050919050565b6000610ef482610e92565b610efe8185610e9d565b9350610f0e818560208601610eae565b610f1781610ed8565b840191505092915050565b6000819050919050565b610f3581610f22565b82525050565b60006060830160008301518482036000860152610f588282610ee9565b91505060208301518482036020860152610f728282610ee9565b9150506040830151610f876040860182610f2c565b508091505092915050565b6000610f9e8383610f3b565b905092915050565b6000602082019050919050565b6000610fbe82610e66565b610fc88185610e71565b935083602082028501610fda85610e82565b8060005b858110156110165784840389528151610ff78582610f92565b945061100283610fa6565b925060208a01995050600181019050610fde565b50829750879550505050505092915050565b600060208201905081810360008301526110428184610fb3565b905092915050565b6000604051905090565b600080fd5b600080fd5b600073ffffffffffffffffffffffffffffffffffffffff82169050919050565b60006110898261105e565b9050919050565b6110998161107e565b81146110a457600080fd5b50565b6000813590506110b681611090565b92915050565b6000602082840312156110d2576110d1611054565b5b60006110e0848285016110a7565b91505092915050565b60008115159050919050565b6110fe816110e9565b82525050565b600060208201905061111960008301846110f5565b92915050565b61112881610f22565b811461113357600080fd5b50565b6000813590506111458161111f565b92915050565b600080fd5b600080fd5b7f4e487b7100000000000000000000000000000000000000000000000000000000600052604160045260246000fd5b61118d82610ed8565b810181811067ffffffffffffffff821117156111ac576111ab611155565b5b80604052505050565b60006111bf61104a565b90506111cb8282611184565b919050565b600067ffffffffffffffff8211156111eb576111ea611155565b5b6111f482610ed8565b9050602081019050919050565b82818337600083830152505050565b600061122361121e846111d0565b6111b5565b90508281526020810184848401111561123f5761123e611150565b5b61124a848285611201565b509392505050565b600082601f8301126112675761126661114b565b5b8135611277848260208601611210565b91505092915050565b6000806040838503121561129757611296611054565b5b60006112a585828601611136565b925050602083013567ffffffffffffffff8111156112c6576112c5611059565b5b6112d285828601611252565b9150509250929050565b600080604083850312156112f3576112f2611054565b5b600083013567ffffffffffffffff81111561131157611310611059565b5b61131d85828601611252565b925050602083013567ffffffffffffffff81111561133e5761133d611059565b5b61134a85828601611252565b9150509250929050565b60006020828403121561136a57611369611054565b5b600061137884828501611136565b91505092915050565b600082825260208201905092915050565b600061139d82610e92565b6113a78185611381565b93506113b7818560208601610eae565b6113c081610ed8565b840191505092915050565b6113d481610f22565b82525050565b600060608201905081810360008301526113f48186611392565b905081810360208301526114088185611392565b905061141760408301846113cb565b949350505050565b60006020828403121561143557611434611054565b5b600082013567ffffffffffffffff81111561145357611452611059565b5b61145f84828501611252565b91505092915050565b600060408201905081810360008301526114828185611392565b905061149160208301846113cb565b9392505050565b600080604083850312156114af576114ae611054565b5b600083013567ffffffffffffffff8111156114cd576114cc611059565b5b6114d985828601611252565b92505060206114ea858286016110a7565b9150509250929050565b6114fd8161107e565b82525050565b600060208201905061151860008301846114f4565b92915050565b7f4e487b7100000000000000000000000000000000000000000000000000000000600052602260045260246000fd5b6000600282049050600182168061156557607f821691505b6020821081036115785761157761151e565b5b50919050565b7f456c656374696f6e206973206e6f742061637469766500000000000000000000600082015250565b60006115b4601683611381565b91506115bf8261157e565b602082019050919050565b600060208201905081810360008301526115e3816115a7565b9050919050565b7f596f75206861766520616c726561647920766f74656400000000000000000000600082015250565b6000611620601683611381565b915061162b826115ea565b602082019050919050565b6000602082019050818103600083015261164f81611613565b9050919050565b600081905092915050565b600061166c82610e92565b6116768185611656565b9350611686818560208601610eae565b80840191505092915050565b600061169e8284611661565b915081905092915050565b7f54686973206d6174726963206e756d6265722068617320616c7265616479206260008201527f65656e2075736564000000000000000000000000000000000000000000000000602082015250565b6000611705602883611381565b9150611710826116a9565b604082019050919050565b60006020820190508181036000830152611734816116f8565b9050919050565b7f4e6f7420617574686f72697a656420746f20766f74652077697468207468697360008201527f206d6174726963206e756d626572000000000000000000000000000000000000602082015250565b6000611797602e83611381565b91506117a28261173b565b604082019050919050565b600060208201905081810360008301526117c68161178a565b9050919050565b7f4e487b7100000000000000000000000000000000000000000000000000000000600052603260045260246000fd5b7f4e487b7100000000000000000000000000000000000000000000000000000000600052601160045260246000fd5b600061183682610f22565b915061184183610f22565b9250828201905080821115611859576118586117fc565b5b92915050565b7f4f6e6c792061646d696e2063616e20706572666f726d2074686973206163746960008201527f6f6e000000000000000000000000000000000000000000000000000000000000602082015250565b60006118bb602283611381565b91506118c68261185f565b604082019050919050565b600060208201905081810360008301526118ea816118ae565b9050919050565b60008190508160005260206000209050919050565b60006020601f8301049050919050565b600082821b905092915050565b6000600883026119537fffffffffffffffffffffffffffffffffffffffffffffffffffffffffffffffff82611916565b61195d8683611916565b95508019841693508086168417925050509392505050565b6000819050919050565b600061199a61199561199084610f22565b611975565b610f22565b9050919050565b6000819050919050565b6119b48361197f565b6119c86119c0826119a1565b848454611923565b825550505050565b600090565b6119dd6119d0565b6119e88184846119ab565b505050565b5b81811015611a0c57611a016000826119d5565b6001810190506119ee565b5050565b601f821115611a5157611a22816118f1565b611a2b84611906565b81016020851015611a3a578190505b611a4e611a4685611906565b8301826119ed565b50505b505050565b600082821c905092915050565b6000611a7460001984600802611a56565b1980831691505092915050565b6000611a8d8383611a63565b9150826002028217905092915050565b611aa682610e92565b67ffffffffffffffff811115611abf57611abe611155565b5b611ac9825461154d565b611ad4828285611a10565b600060209050601f831160018114611b075760008415611af5578287015190505b611aff8582611a81565b865550611b67565b601f198416611b15866118f1565b60005b82811015611b3d57848901518255600182019150602085019450602081019050611b18565b86831015611b5a5784890151611b56601f891682611a63565b8355505b6001600288020188555050505b505050505050565b7f456c656374696f6e20686173206e6f7420656e64656420796574000000000000600082015250565b6000611ba5601a83611381565b9150611bb082611b6f565b602082019050919050565b60006020820190508181036000830152611bd481611b98565b905091905056fea264697066735822122058baaab6023172fb919168fedac46ae1abc53c855613bd63542c99949b0507cf64736f6c634300081c0033",
  "linkReferences": {},
  "deployedLinkReferences": {}
}